:020000040800F2
:10000000F8060020612A0008A1280008A32800089B
:10001000A5280008A7280008A9280008000000005B
:10002000000000000000000000000000AB280008F5
:10003000AD28000800000000AF280008B128000823
:100040008D2A0008912A0008952A0008992A00089C
:100050009D2A0008A12A0008A52A0008A92A00084C
:10006000AD2A0008B12A0008B52A0008B92A0008FC
:10007000BD2A0008C12A0008C52A0008C92A0008AC
:10008000CD2A0008D12A0008D52A0008D92A00085C
:10009000B5280008DD2A0008E12A0008E52A000842
:1000A000E92A0008ED2A0008F12A0008F52A0008CC
:1000B000BB280008C1280008C7280008F92A000842
:1000C000FD2A0008012B0008052B0008092B000859
:1000D0000D2B0008112B0008152B0008192B000808
:1000E0001D2B0008212B0008252B0008292B0008B8
:1000F0002D2B0008312B0008352B0008392B000868
:100100003D2B0008412B0008CD280008452B000896
:10011000492B00084D2B0008D3280008512B00085C
:10012000552B0008592B00085D2B0008612B000897
:1001300010B5029C401AE41A6043511A90FBF1F08A
:10014000181810BD2DE9F843DFF84449DFF8445989
:100150002B4604F13C02002101F0FDF8A06D4AF6A7
:10016000AA220260E06B38B96878892807BF0120AD
:1001700020730021217386E040F28131884205D14D
:100180002879697941EA002121867CE040F28232B7
:10019000904278D12878DFF80069C10703D520782C
:1001A00008B9012200E000224FF40041304601F07E
:1001B0003FFB2878C0F3400018B1207808B901222D
:1001C00000E000224FF48041304601F031FB2A78F4
:1001D0002178D00703D5012908BF012000D00020D5
:1001E000E070C2F3400018B1012908BF012000D01F
:1001F0000020A0706878C00800F0010060709008CE
:1002000000F001002070C2F3C00060B3DFF8FC8C86
:1002100000F00BFC01280CBF01270027202100F073
:10022000FFFB01280CBF01260026082100F0F8FB87
:1002300001280CBF4FF001094FF0000900F0EFFB5F
:10024000012818BF0020374009EA070707420BD0F2
:10025000687A48B901216972607A90F0010018BF8C
:100260000120607200E068726878400800F00100C8
:1002700028722878400900F00100607168798009CF
:1002800000F001002071BDE8F183DFF8842C00202C
:10029000892110705170DFF87C3CDFF87C1CDFF89E
:1002A0007C0C00F0EDBFF8B5DFF8E447DFF8701C18
:1002B000DFF8680C04F1640304F1200200F0E0FFB1
:1002C000E07F401CC1B2A02908BF0020E077E17F99
:1002D000DFF8500C512904DB217B012908BF0122E2
:1002E00000D000224FF4005101F0A2FA207F617F7C
:1002F00094F82020E379657EA67EA77A94F80BC057
:10030000012818BF0020012918BF0021084314BF8D
:1003100042F0010202F0FE0284F82020E17E94F80F
:100320002000A27901290CBF40F0020000F0FD007E
:1003300084F82000E07D217E94F820E0012818BF99
:100340000020012918BF0021012A18BF0022012B1B
:1003500018BF0023012D18BF0025012E18BF00264D
:10036000012F18BF0027BCF1010F18BF4FF0000C80
:100370000843104318432843304338435CEA0000E5
:1003800014BF4EF004000EF0FB0084F82000F1BD15
:100390002DE9FC41DFF8904B258EB5F5E16F1ADAB7
:1003A000012040F231218D4216DA00212278561EBA
:1003B000B641084010EAD67F10D04FF4617000902B
:1003C00064234FF40C724FF4E1612846FFF7B0FE4E
:1003D0000127608505E000200121E7E70020608516
:1003E0000027A77240F68148454541F2941714DB77
:1003F0000120BD4212DB0021084010EAD67F0FD059
:100400004FF461700090642341F258124FF4486138
:100410002846FFF78DFE012604E000200121EBE7CE
:10042000002000264545E6720ADA0121B5F5E16FA4
:1004300007DA0022B5F50C7FACBF0023012306E0EC
:10044000002101220023BD42C8BF012500DC002598
:100450001140194329431CBF00206085A085BDE8D9
:10046000F3812DE9F84FDFF82856DFF8C09AA96D1F
:10047000DFF898AADFF8B8BADFF8B88A4AF6AA20F7
:100480000860287A401C2872A87F401CC1B26429E9
:1004900008BF0020A8774FF40041A87F3228CCBFC6
:1004A0000122002200F0D7FA00F0C3FA01280CBFA5
:1004B0000124002400F0AAFA01280CBF012600261E
:1004C000082100F0A4FA01280CBF012700274021D1
:1004D00000F09DFA012818BF002034403C4004423F
:1004E00046D0012200F0AFFA0121687AE976F0B92E
:1004F0004FF4807100F094FA441EA4414FF48061DF
:1005000000F07CFA401E8041C00F50EAD4740AD03B
:100510000020287201220121584601F089F900F0DB
:10052000A9FA012002E000F0A0FA0020A876687A7B
:1005300001283CD100F073FA441E5046A44110211A
:1005400001F070F9E40F401E804114EAD07F0AD018
:100550000020287201224FF4807100F07CFA00F034
:1005600084FA012002E000F085FA002068761EE09F
:1005700000F05FFA441EA44100F048FA401E80419A
:10058000C00F40EAD474082100F041FA461EB6417B
:10059000402100F03CFA401E804144EAD67454EAFF
:1005A000D07404D0002200F04EFA0020E8764FF418
:1005B000807100F035FA01280CBF012400244FF4AB
:1005C000806100F01BFA012818BF0020044204D00B
:1005D000012200F03EFA012003E0002200F039FA87
:1005E0000020287700F01BFA01280CBF012400240A
:1005F000102100F00CFA012818BF0020044204D09A
:10060000012200F01AFA012003E0002200F015FA9E
:1006100000206877287A782803DB00F02BFA00F0B6
:1006200024FA2979DFF81009012908BF012201D035
:1006300021B900224FF4005101F0FAF8687901283D
:1006400005D10022802100F006FA002205E040B921
:100650000122802100F0FFF901224FF4806100F0B7
:10066000FAF96878002840F09A80E87801280CBFF1
:100670000124002400F0DDF9B0F1010969EB09095A
:1006800000F0C4F900F0A0F900F0C1F900F095F90C
:1006900000F0BDF9461EB64100F0C1F901280CBFBB
:1006A00001270027102100F0B2F900F09AF90CBFE1
:1006B0000122002200F05FF911D0688E401C012158
:1006C0006886E97500F093F9012804BF4FF448707B
:1006D000E88500F091F910B94FF47A70E885E87870
:1006E00030B100F0A2F9012805D1688E1E2802DD84
:1006F0000021E985E975E87808B900216986A878BC
:1007000001280CBF0124002400F093F9B0F1010985
:1007100069EB090900F07AF900F056F900F077F971
:1007200000F04BF900F073F9461EB64100F077F97E
:1007300001280CBF01270027102100F068F900F004
:1007400050F90CBF0122002200F015F911D0A88E3B
:10075000401C0121A886297600F049F9012804BF30
:100760004FF44870288500F047F910B94FF47A70BB
:100770002885A87800F057F90128A98E18BF002015
:100780001E29CCBF01210021084050EAD47402D0B8
:10079000002028852876A87808B90021A9866878DD
:1007A000012840F0A780E87801280CBF012400242C
:1007B00000F03FF900F025F900F0F8F800F027F913
:1007C00000F0EDF800F023F900F024F901280CBF47
:1007D00001270027102100F01AF900F0FCF80CBFE7
:1007E0000122002200F0D0F84FF47A794FF44876D5
:1007F00005D001210020A971E871288502E0A879BF
:1008000001280ED100F02AF9288F401C288700F01B
:10081000F3F8012808BFEE8500F0EEF808B9A5F856
:100820002E90A87900F0FFF80128298F18BF00202A
:100830001E29CCBF01210021084050EAD47403D006
:100840000020E88500F01CF9A87908B90021298763
:10085000A87801280CBF0124002400F0EAF800F079
:10086000D0F800F0A3F800F0D2F800F098F800F00B
:10087000CEF800F0CFF801280CBF01270027102187
:1008800000F0C5F800F0A7F80CBF0122002200F02C
:100890007BF805D001210020E971A871E88502E00C
:1008A000E87901280ED100F0D9F8E88E401CE886DE
:1008B00000F0A2F8012808BF2E8500F09DF808B9C5
:1008C000A5F82890687800F0AEF80128E98E18BFE6
:1008D00000201E29CCBF01210021084050EAD47419
:1008E00004D000202885E87100F0CBF8E87908B939
:1008F0000021E986687818B90021E97100F0C0F894
:1009000000F08DF800B10120E8744FF4807100F020
:1009100087F800B101202875102100F078F800B1A7
:10092000012068754FF4806100F068F800B1012083
:10093000A87500F07EF800B10120687300F066F839
:1009400000B10120A873082100F061F800B1012076
:10095000E873402100F05BF800B10120287400F03A
:1009600064F800B10120687400F046F800B101207D
:10097000A874BDE8F18F04EAD9740C40044004EA7D
:10098000D6743C40144270470C409DF8011004405E
:100990009DF800000C4004403C4014427047401E4B
:1009A0008041C00F8DF8010040217047401E8041FA
:1009B000C00F8DF8020008217047401E8041C00F13
:1009C0008DF8000040217047401E8041C00F8DF817
:1009D00001000821704701289DF803109DF80200CE
:1009E000704701289DF801109DF800007047584697
:1009F0004FF4805100F016BF4FF48051584600F07C
:100A000011BF401E8041C00F8DF8030020215046C9
:100A100000F008BF401E8041C00F8DF8000040214B
:100A2000404600F0FFBE441EA4410421404600F0B1
:100A3000F9BE0421504600F0F5BE4FF48051DFF8B6
:100A4000E40400F0F5BE4FF48051DFF8EC0400F050
:100A5000EFBE4FF48051484600F0EABE01224FF449
:100A60008041DFF8C00400F0E3BE002201215846B7
:100A700000F0DEBE00224FF48071484600F0D8BE80
:100A8000A87100224FF48041DFF8980400F0D0BE36
:100A900020020020E0020020001C01402DE9F04F60
:100AA00095B000F0E7FE00F088FA102200F0B3FAEB
:100AB000DFF88804DFF878740168DFF87C54DFF829
:100AC0006CA4DFF8604441F01001016049F28056E7
:100AD000026802F0100204920499026842F0800257
:100AE0000260036803F0800300F047FA42F040021E
:100AF0000260036803F0400300F03FFA42F008028E
:100B00000260036803F0080300F037FA42F48072D1
:100B10000260036803F4807300F02FFA42F00402CD
:100B20000260036803F0040300F027FA42F0200299
:100B300002600022006800F0200004900121049867
:100B4000384600F075FE00224FF47841284600F048
:100B50006FFE00223146504600F06AFE00224FF43C
:100B6000E041204600F064FE012100910191022243
:100B70000021029103926946384600F089FD4FF446
:100B8000784100F001FA284600F082FD01200221A0
:100B9000019000220391029200966946504600F0AF
:100BA00077FD4FF4E04100F0EFF9204600F070FDD2
:100BB000002101914FF4A270022200900292694636
:100BC000DC48DFF85883DE4D00F062FD4FF4A050A2
:100BD00000F0E3F9384600F05BFD7C2000F0DDF921
:100BE000CA4800F055FDD748C8F800001221C8F8DF
:100BF00004104FF4E00000224FF4C021C8F81400A4
:100C0000C8F80820C8F80C20C8F81010C8F8182038
:100C1000A8F81C20404600F01FFA00F0C9F900F0C7
:100C2000F9F94FF0804028670A216967002005F133
:100C3000880BA867C5F8800080214FF4E156CBF8F7
:100C40000010EE6705F1700000F026FE4FF4805AA8
:100C500000F086F905F1700001F008F800F0A4F941
:100C600005F1700000F08DF900F0A2F900F0D2F962
:100C7000B548CBF878004FF4967105F58474CBF83D
:100C80007C10002020606660A0608020206105F557
:100C9000807000F001FE00F063F905F5807000F04F
:100CA000E5FF00F081F905F5807000F06AF9102287
:100CB000002111A801F06DF900F0ACF91C2200F040
:100CC00078F92022002109A801F063F99F48A86261
:100CD0006421E962002040F24C4128636963A86303
:100CE000E863286405F1280000F0D6FDCDF844A0A3
:100CF00011A905F1280000F0B9FF05F1280000F066
:100D000021FE00F051F905F1280000F03AF96020C9
:100D10000021029004910022069108914FF47A7903
:100D200005920792CDF80C9000F022F9042200F011
:100D30001FF9082200F01CF90C2200F019F900201C
:100D40004FF4005109900A900B900C900D900E9169
:100D5000109009A905F1280001F062F905F12800B9
:100D600001F057FA00F056F905F5C8777848386071
:100D70000A2179600022BA60FE608020B86138469E
:100D800000F08AFD00F010F9384600F0FAF800F0A3
:100D90000FF900F03FF96F48CBF8300064210020D4
:100DA000CBF83800CBF84000CBF834108020CBF8DB
:100DB0003C60CBF8480005F1B80B584600F06CFDDC
:100DC00000F0CEF8584600F051FF00F0EDF858461C
:100DD00000F0D7F800F0ECF800F01CF95E48206451
:100DE000C4F844900021A164E6642165A16505F57D
:100DF000A476304600F050FD00F0B2F8304600F026
:100E000035FF00F0D1F8304600F0BBF8464E5348AD
:100E1000B065002140F6FF703066F16506F15800BC
:100E200001F038FA0020686100210120A961E86121
:100E300029606960A960E96029610E2001212962A9
:100E400068622946404600F082F9404600F0E4F925
:100E5000002140F28130B1647164F0630821F164D3
:100E600040F282307866002139670020F866082158
:100E70007967B86478653865B96500212648C1602E
:100E80004FF4027200230221026083600161037546
:100E90004FF41B712248016001210161C36083602E
:100EA00003752946404600F052F9404600F0B4F977
:100EB0000221404600F0CBFA384600F0FAFC05F576
:100EC000807000F0F6FC584600F0F3FC05F170006D
:100ED00000F0EFFC002100F047F8042100F044F896
:100EE000082100F041F80C2100F03EF8A86A00212A
:100EF00041638163C1630164318D4163728D82639B
:100F0000B18DC163F28D0264F6E700000014014068
:100F1000EC02002084020020B002002088020020A1
:100F2000C8020020000C01402002002000180140EF
:100F30000010014000200140001C01401810024038
:100F4000100000200064004000080040002C014018
:100F50000010004000040040000C00400030004041
:100F6000CDF808A002A9704705F1280000F0F7BCF1
:100F700002A905F1280000F019BE04930499026843
:100F80007047694601F010B80091012201920021DA
:100F9000029102220392694670470021009001915C
:100FA0000222029269467047002100910191704728
:100FB0001022002102A800F0ECBF00B58FB028225B
:100FC000002105A800F0E5FF142200F024F8092113
:100FD000059101234FF48031069109930B930D91F4
:100FE000002202234FF4E01107920C930E9105A802
:100FF00001F072F9022101910F204FF480610090FD
:1010000000220391029204920221684601F0EEFA56
:101010000FB000BD08220021684600F0BABF30B40E
:10102000002513E050F8042BD30744BFA9F10103B6
:101030009A18091F042942F8045BFAD213468C0758
:1010400044BF15809B1CC90748BF1D7050F8041B86
:101050000029E7D130BC704738B5040025D094F89A
:10106000200010B9204601F022F82068016821F024
:101070000201016001F07CFB0546206841688A0797
:1010800005D501F075FB401B0B28F6D30BE000F0F3
:10109000F1F8054620684168CA0708D401F068FBEA
:1010A000401B0B28F6D300F0DDF8012032BD217E75
:1010B000012904D1026842F08002026003E0016865
:1010C00021F080010160607E00F03DF80CBF41F02E
:1010D000400121F040010160A07E00F034F80CBF17
:1010E00041F0200121F020010160E07E00F02BF8AA
:1010F0000CBF21F0100141F010010160207F00F0D1
:1011000022F80CBF41F0080121F008010160607F66
:1011100000F019F80CBF41F0040121F00401016056
:10112000A268E0682169024360690A43616802437A
:101130002068491E0A43C26100216162012084F8CF
:101140002000002032BD0128206801687047F0B5FA
:10115000066890F82020012A18BF022A51D106F50E
:1011600000720124106840F00100106006F511754E
:101170000B7DD06903F01F0304FA03F3DC43204026
:10118000D06106F51076C86970B9D0682040D0608B
:101190004868CF6800F039F80F688868BFB247EA3E
:1011A0000047486945F83070C86901280ED1D068F9
:1011B0001843D06048680F6800F027F8CE68886848
:1011C000B6B246EA0046486945F8306088690028AA
:1011D00050680CBF204018435060086900285069CF
:1011E00007BF0440546118435061086A012802D1C6
:1011F000D0690343D3610020116849084900116098
:10120000F0BD416A41F480219CE080B240EA074091
:101210004F6946F83700704738B5044694F8200007
:10122000012819D1022184F8201020680268520890
:101230005200026001F09CFA054620684168C80728
:1012400007D501F095FA401B0B28F6D300F00AF8F9
:1012500006E00020606232BD606A40F400206062F7
:10126000012032BD606A40F400306062052184F8DC
:1012700020107047016841F00101016001F078BA67
:10128000F0B590F820400568AD68012C18BF022C1D
:1012900055D115F0E05F4ED0C5F30164032C03D3A4
:1012A000416A41F400014DE00125A5401D60240183
:1012B0000368CE6803F5C0758B681BB90B6846EAF6
:1012C000435603E04F6843EAC7031E432E510568A7
:1012D0000B6905F5C2763351097D012906D10368F2
:1012E00003F5C2710D5945F480750D519379D1798B
:1012F00055791B0443EA0163117943EA0523056824
:1013000025440B43C5F88C319378D17855781B046C
:1013100043EA01631178026843EA052322440B4340
:10132000C2F88831006800F5C070015941F0010130
:1013300001510020F0BD416A41F4001102E0416A10
:1013400041F4802141620120F0BD416A41F48021D5
:10135000416201207047F0B590F82040012C18BF81
:10136000022C66D10029046801D1E56800E02569F6
:1013700015F0030F03D1416A41F400115CE00D0147
:1013800004F5D876745914F004049460066806F5E0
:10139000D87603D17459640D146002E07659F608CA
:1013A0005660046804F5D876775907F00207D760CD
:1013B00000F043F806F00F06166100F03EF8C6F3A1
:1013C0000724946100F039F8360C566102682A440B
:1013D000D2F8B8411C7006682E44D6F8B821120A1B
:1013E0005A7004682C44D4F8B821120C9A7004681E
:1013F0002C44D4F8B821120EDA7000F023F81A71D8
:1014000000F020F8120A5A7100F01CF8120C9A71C0
:1014100000F018F8120EDA71006821B9C16841F0C5
:101420002001C16003E0016941F020010161002059
:10143000F0BD416A41F4802184E704682C44D4F86B
:10144000B461704704682C44D4F8BC21704790F80C
:101450002020012A18BF022A03D1006842691143E3
:1014600000E072E74161002070472DE9F84F054622
:101470004FF0000828684669D0F804B08468D0F8B6
:101480000C90D0F810A08769F10745D5E20713D575
:1014900001218160A00703D5284601F06FF90BE018
:1014A000600748BF4FF4006806D420074EBF4FF4D2
:1014B0008058284601F063F9E00515D52A684FF4F5
:1014C0008071A005916003D5284601F059F90BE021
:1014D000600548BF48F4005806D420054EBF48F4C4
:1014E0008048284601F04DF9E00315D52A684FF4ED
:1014F0008031A003916003D5284601F043F90BE049
:10150000600348BF48F4004806D420034EBF48F4A7
:101510008038284601F037F9300748BF5FEAC961D3
:1015200004D52968102048F40078C860700748BFC7
:101530005FEA097105D52A680820D060284601F0C5
:1015400023F9B00707D52968C86810F0030F1CBF3E
:101550002846FEF7F7FD700648BF5FEACA6104D56A
:101560002968102048F480680861B00648BF5FEA27
:101570000A7105D52A6808201061284601F005F98E
:10158000F00607D52968086910F0030F1CBF28462C
:1015900001F0FCF8B00348BF5FEACB6105D52A68CB
:1015A00010205060284601F0F2F8F00348BF5FEACF
:1015B0000B7105D52A6808205060284601F0E8F82C
:1015C000300440D55FEA4B713AD5F00503D5F907F1
:1015D00048BF48F00108B00503D5B90748BF48F037
:1015E0000208700503D5790748BF48F004083005A4
:1015F00026D517F0700F23D007F07007102F0CD0EE
:10160000202F0DD0302F0ED0402F0FD0502F10D0C4
:10161000602F08BF48F480780DE048F008080AE021
:1016200048F0100807E048F0200804E048F04008BF
:1016300001E048F080082868816921F0700181612B
:10164000042029684860B8F1000F08D0686A48EAA9
:10165000000068622846BDE8F24F01F09AB8BDE884
:10166000F18F30B40EE00268436802440830DC07B2
:1016700044BFA9F10104E31852F8045B43F8045B8A
:10168000091FF9D150F8041B0029ECD130BC704778
:101690002DE9F8474FF0000E0024674A674BDFF84A
:1016A000A0814FF00F0982460CE0D7683840D06027
:1016B00006E095604D68AD02F7D5D0680743D76066
:1016C0000EF1010E0F6837FA0EF000F0A98001202C
:1016D00000FA0EF63740B742F2D1486838B3012815
:1016E0001AD002281DD003282ED0112816D0122877
:1016F0001AD0544DA8421CBF534DA84217D0534D89
:10170000A8421CBF524DA84211D0524DA8421CBF46
:10171000514DA8420BD018E0CC6816E0CC68241DCF
:1017200013E0CC68083410E0CC680C340DE0886815
:1017300008B9042409E0012819BF0824CAF8146074
:101740000824CAF8106000E00024B7F5807F03D2B7
:1017500050464FEA8E0C05E0AEF108050AF1040090
:101760004FEA850C056809FA0CF6B54304FA0CF645
:10177000354305604868C000A2D5D8F8000040F0A5
:101780000100C8F80000D8F8005005F001050095E8
:101790004FEA8E0500984FEA9E0053F8206005F04E
:1017A0000C0C09FA0CF526EA05052C4EB24508BFCB
:1017B000002618D02A4EB24508BF012613D0294E64
:1017C000B24508BF02260ED0274EB24508BF0326F9
:1017D00009D0264EB24508BF042604D0244EB24597
:1017E0000CBF0526062606FA0CF6354343F82050B2
:1017F000F8434D68ED0315684CBF3D430540156047
:101800004D68AD0355684CBF3D43054055604D687C
:101810009668ED024CBF47EA060500EA060548E770
:10182000BDE8F1878068084018BF0120C0B270474A
:1018300002B9090401617047000401400800014039
:1018400018100240000011100000121000002110BA
:10185000000022100000311000003210000801408A
:10186000000C01400010014000140140001801402C
:10187000001C014080B50748016841F0100101607B
:10188000032000F094FF002000F0E6FF00F0F2FBE0
:10189000002002BD0020024038B5040001D1012023
:1018A00032BD00F0D9F818B900F0D2F800F040FCD1
:1018B00035E090F83D10012901D001207047022148
:1018C00080F83D100168CA6842F00102CA600068F1
:1018D000DFF86C1188421CBFDFF8682190420ED0FF
:1018E000B0F1804F1CBFDFF86011884207D0DFF8ED
:1018F0005C2190421CBFDFF86811884209D18168E1
:1019000001F00701062908D0016841F001010160DA
:1019100003E0026842F001020260002070470220EA
:101920006870211D206800F0FEF90120A872A870DF
:10193000E87028716871A871E8712872687268701F
:10194000002032BD38B5040001D1012032BD00F0C5
:1019500083F818B900F07CF800F09EFFDFE710B5BF
:1019600000F062F809B9027807E0042908BF42785C
:1019700003D008290CBF8278C278012A01D0012047
:1019800010BD11B9022202700AE0042902D102221C
:10199000427005E0082907BF022282700223C3704B
:1019A00000F021F800F023F818BF884200F026F874
:1019B00018BF88420DD0B0F1804F1CBFDFF88810EF
:1019C000884206D000F02CF81CBFDFF89410884243
:1019D00005D100F020F804D000F02DF801E000F06F
:1019E00015F8002010BD2068012200F0C4BA20685C
:1019F000DFF84C20DFF84C109042704703D1436C65
:101A000043F400434364206890427047026842F008
:101A1000010202607047816801F0070106297047E2
:101A2000DFF8282090427047044604F13E007047DA
:101A3000C16001222868016841F00101016070471E
:101A4000002C014000340140000400400008004028
:101A5000002129702046704704F13C0568787047E2
:101A6000000C004010B50446206801698A0715D5AE
:101A7000C1688A0712D56FF0020101610122227745
:101A8000806910F0030F204602D000F006FF03E04B
:101A900000F004FF00F087F800202077206801693B
:101AA0004A0715D5C1684A0712D56FF004010161D4
:101AB00002222277806910F4407F204602D000F095
:101AC000ECFE03E000F0EAFE00F06DF80020207765
:101AD000206801690A0715D5C1680A0712D56FF099
:101AE0000801016104222277C06910F0030F20462B
:101AF00002D000F0D2FE03E000F0D0FE00F053F878
:101B00000020207720680169CA0615D5C168CA0679
:101B100012D56FF01001016108222277C06910F41C
:101B2000407F204602D000F0B8FE03E000F0B6FE91
:101B300000F039F80020207720680169CA0708D52D
:101B4000C168CA0705D56FF001010161204600F0A8
:101B5000C3FE206801690A0608D5C1680A0605D5D2
:101B60006FF080010161204600F0E6FE2068016907
:101B70004A0608D5C1684A0605D56FF040010161E3
:101B8000204600F0DAFE206801698A060AD5C1689D
:101B90008A0607D56FF0200101612046BDE810409C
:101BA00000F0CCBE10BD204600F0C9BE38B500F034
:101BB00057F801D1022032BD012084F83C0032B137
:101BC000042A15D0082A25D00C2A34D044E02068F5
:101BD00000F0E3F82168886940F0080088618869AE
:101BE00020F0040088618A69286902438A6133E031
:101BF000206800F0FEF82068816941F4006181618D
:101C0000816921F48061816181692A6941EA022147
:101C1000816121E0206800F01CF92168C86940F06A
:101C20000800C861C86920F00400C861CA69286951
:101C30000243CA6110E0206800F03AF92068C169E7
:101C400041F40061C161C16921F48061C161C16970
:101C50002A6941EA0221C161002084F83C0032BDBA
:101C600004460D4694F83C000128704738B500F052
:101C70004EF801D1022032BD012020700222627094
:101C8000DFF874022A6893680340936008680200D2
:101C900018BF10282DD0202818BF302829D0402860
:101CA00023D0502816D0602818D0702803D0B0F563
:101CB000005F07D021E000F025F82868816841F036
:101CC000770105E000F01EF82868816841F4804142
:101CD000816012E000F012F850210BE0CA684968F8
:101CE000286800F024F9602104E000F007F84021A2
:101CF00000E00146286800F02CF90EE0CA68496847
:101D0000286805E1CB684A688968286829E10546A2
:101D100005F13C0420780128704701206070002103
:101D20002170002032BDF0B5DFF8D0C1744F0368D8
:101D3000744C754D754E604518BFB84208D0B0F16F
:101D4000804F18BFB04203D0A84218BFA0420DD1A7
:101D50004A6823F070031343604518BFB84207D0A8
:101D6000B0F1804F1CBFB042A84201D0A04203D1C5
:101D7000CA6823F4407313434A6923F08003134372
:101D8000036060458B68C3620A68826212BFB84212
:101D90000969016301224261F0BDF0B5026A574F43
:101DA000520852000262066A446885690B688A68B4
:101DB00025F0730526F002061D431643504BB8422A
:101DC00018BF984207D1CA6826F008061643B842E1
:101DD00026F0040601D0984205D14B698A6924F4A3
:101DE00040741C4314434460856149684163066242
:101DF000F0BDF0B5026A414E22F010020262B0421C
:101E0000056A436884690A6824F4E64444EA0224C3
:101E10008A6825F0200545EA0215394A18BF904224
:101E200008D1CF6825F0800545EA0715B04225F0B6
:101E3000400501D0904206D14E698A6923F440637F
:101E4000164343EA860343608461496881630562FF
:101E5000F0BDF0B5026A22F480720262056A43683E
:101E6000C4698E680A6825F4007524F0730445EA95
:101E700006251443214E224AB04218BF904208D191
:101E8000CF6825F4006545EA0725B04225F4806552
:101E900001D0904206D14E698A6923F4405316431B
:101EA00043EA06134360C4614968C1630562F0BD3B
:101EB00070B5026A114E22F480520262B042046A86
:101EC0004268C3690D6823F4E64343EA05238D683D
:101ED00024F4005444EA05341CBF094DA84204D13F
:101EE0004D6922F4804242EA85124260C36149682A
:101EF0000164046270BD00008800FFFF002C0140F7
:101F000000340140000C0040000800400004004084
:101F100010B5036A046A64086400046223F00A03CB
:101F2000846924F0F00444EA021484612EE010B5C0
:101F3000036A23F0100303628369046A23F4704385
:101F400043EA023324F0A004836144EA01140462EA
:101F500010BD826822F07002114341F007018160D8
:101F6000704710B5846824F47F442143114341EA4B
:101F70000321816010BD10B501F01F01036A012427
:101F80008C40A343036202FA01F1036A1943016220
:101F900010BD10B5044610460A460146204600F022
:101FA000CFFC204610BD000070B500F13C031A784C
:101FB000012A01D1022070BD01221A7002245C7036
:101FC00005686E68AC680A6826F0700616436E6095
:101FD00002680E4882421CBF0E4DAA420BD0B2F1DD
:101FE000804F1CBF0C48824205D0094DAA421CBF3D
:101FF0000A48824204D1486824F080040443946073
:10200000012159700020187070BD0000002C0140A3
:10201000000800400034014000040040000C004073
:1020200010B590F83C20012A01D1022010BD0122F8
:1020300080F83C20CC688A684B6824F440741443D0
:1020400024F480641C430A680B6924F4006414437C
:1020500024F480541C434A69C96924F4005414438D
:10206000026824F480440C435464002380F83C301C
:10207000002010BD7D4881B0016841F00101016080
:10208000026802F0010200920099426842F0805218
:102090004260406800F080500090009874480168E9
:1020A00021F0E06141F00071016001B0704718B5A6
:1020B00085B00446102200216846FFF76AFF2168B8
:1020C0006C48814232D169486B4C416841F00071E3
:1020D0004160416801F0007104910499026842F086
:1020E000200202600121006800F02000049000221C
:1020F000049800910192029269462046FFF7C8FABF
:102100000220009001900322039269462046FFF7C7
:10211000BFFA00F0A5F841F4C0410160002200219F
:10212000142000F051FB142000F06BFB06B010BD32
:1021300080B50068514A4D49904209D1086840F481
:1021400000600860096801F400610091009801BD19
:10215000B0F1804F0DD1486840F0010000F051F817
:1021600000F0010000F051F81C2000F02DFB1C20B5
:1021700042E0434A90420DD1486840F0020000F02E
:1021800040F800F0020000F040F81D2000F01CFBB9
:102190001D2031E03B4A90420DD1486840F00400D8
:1021A00000F02FF800F0040000F02FF81E2000F0DF
:1021B0000BFB1E2020E0344A90420DD1486840F0CD
:1021C000080000F01EF800F0080000F01EF83220B1
:1021D00000F0FAFA32200FE02C4A904210D1486801
:1021E00040F0100000F00DF800F0100000F00DF8C5
:1021F000362000F0E9FA3620BDE8024000F001BBCD
:1022000001BD486000224868704700900021009896
:10221000704718B585B004461022002101A8FFF7C9
:10222000B8FE21681548814218D11048016841F074
:10223000400101604FF4D441006800F0400000907C
:1022400002220098124801910292049201A9FFF71C
:102250001FFA00F005F841F0C001016006B010BDA2
:102260000348016841F0E061704700001810024027
:10227000040001400064004000140140002C0140B3
:102280000004004000080040000C00400010004026
:102290000018014038B5040001D1012032BD20688A
:1022A0004CF6CC41016045F25552026063684360D0
:1022B000A168816000F05CFA05462168C86830B109
:1022C00000F056FA401B2728F7D3032032BD4AF608
:1022D000AA200860002032BD2DE9F843040016D082
:1022E0002078DFF84C64C10713D5706800F00C004B
:1022F000042807D0706800F00C00082841D17068ED
:10230000C1033ED53068810303D56068002800F022
:1023100064812078DFF82874810719D5706810F07F
:102320000C0F07D0706800F00C00082861D17068AD
:10233000C1035ED43068810703D52069012840F0CD
:102340004C813168606921F0F80141EAC0013160D7
:102350002178080740F18180A069DFF8E8130028A0
:1023600000F0A68001220A6000F002FA0546706AB9
:10237000810763D400F0FCF9401B0228F7D9032041
:102380002EE16068B0F5803F04D1306840F48030C1
:10239000306014E008B930680AE0B0F5A02F30686A
:1023A00006D140F480203060316841F4803105E08E
:1023B00020F480303060316821F480213160606821
:1023C00058B100F0D5F9054630688103A1D400F07A
:1023D000CFF9401B6528F7D3D1E700F0C9F90546CE
:1023E0003068810395D500F0C3F9401B6528F7D309
:1023F000C5E72069A8B10121396000F0B9F90546A7
:102400003068810705D400F0B3F9401B0228F7D9E2
:10241000B5E73068616920F0F80040EAC10030603B
:1024200096E7386000F0A4F90546316888078FD533
:1024300000F09EF9401B0228F7D9A0E7DFF8F4026C
:102440000168C9084FF47A72B1FBF2F2009200BF42
:102450000098411E00280091F9D1207841076ED5DF
:10246000F0690025C10009D4F06940F08050F061A6
:102470000125F06900F0805000900098DFF8C882D4
:10248000D8F80000C10520D4D8F8000040F48070CE
:10249000C8F8000000F06CF98146D8F80000C105CA
:1024A00013D400F065F9A0EB09006528F5D366E7C1
:1024B000086000F05DF90546706A8107CDD500F02F
:1024C00057F9401B0228F7D959E7E068012808D0DE
:1024D00008B9306A09E00528306A06D140F00400E6
:1024E0003062306A40F0010005E040084000306290
:1024F000306A20F00400306241F28938E06860B14F
:1025000000F036F98146306A810713D400F030F9C3
:10251000A0EB09004045F6D331E700F029F98146E8
:10252000306A810706D500F023F9A0EB0900404589
:10253000F6D324E71DB1F06920F08050F061E06926
:1025400000284CD0716801F00C01082938D002280D
:102550002AD100F047F805463068810105D500F022
:1025600007F9401B0228F7D909E7206AB0F5803F38
:1025700005D17168A06821F400310143716072686F
:10258000206A616A22F4741202430A4372600120D5
:1025900000F029F804463068810120D400F0E8F802
:1025A000001B0228F7D9EAE600F01CF80446306860
:1025B000810114D500F0DCF8001B0228F7D9DEE613
:1025C00001280AD07068226A00F48031914202BF6B
:1025D00000F47010616A884201D0012000E0002000
:1025E000BDE8F2830020386600F0C2B82DE9F04162
:1025F000040088464ED0554E00F077F802D200F025
:102600006FF847D120684A4D810712D5400703D59E
:10261000696841F4E06169602078010703D5686862
:1026200040F4605068606968A06821F0F0010143DF
:1026300069602178C80725D56068012802D129681A
:102640008A0303E00228296802D18A0102D421E02A
:102650008A071FD56968890840EA8100686000F030
:1026600087F807466868616800F00C00B0EB810FDE
:1026700008D000F07DF8C01B41F289318842F1D3C7
:1026800003202BE0306800F00700804504D200F002
:1026900027F801D0012021E02078410705D56A689C
:1026A000E06822F4E06202436A602178080706D5F8
:1026B0006968206921F4605141EAC001696000F055
:1026C00019F86A6822491B4BC2F30312895CC8409F
:1026D00018601A48006800F0BFF80020BDE8F081DB
:1026E0003168C90848EAC1013160306800F007006C
:1026F00040457047174910480A6802F00C03082B40
:1027000000D0704710B500BF14A4C2F38343D203B6
:10271000E35C08D50968584314A3C1F340415A5CEF
:10272000B0FBF2F010BD18460B49484310BD000045
:10273000001002400C00002000127A000800002067
:1027400000004242800442420070004000200240EB
:10275000502A00080410024000093D00020304054D
:10276000060708090A0B0C0D0E0F101001020000DD
:1027700001484068704700BF000000207047704764
:102780007047704770477047704770477047704791
:10279000704770470901020002D4294881547047EC
:1027A000284B02F00F021A4402F8041C7047264B13
:1027B00019684FF6FF020002114000F4E060084380
:1027C000224908431860704770B51F4B1C68C4F35A
:1027D00002230124C3F10705052D2EBF0F2504FA9E
:1027E00005F56D1E1E1D072E34BF0023DB1E29407C
:1027F000994004FA03F3BDE870405B1E1A40114390
:10280000C8E7010007D4012200F01F01104B8A40E5
:10281000400943F82020704710B5401EB0F1807F7A
:1028200001D3012010BD0B4C60600F214FF0FF3031
:10283000FFF7B0FF0021A16007202060002010BD3D
:1028400000E400E018ED00E00CED00E00000FA0507
:1028500000E100E010E000E038B50D4D0D4B2A78A6
:1028600004464FF47A711868B1FBF2F2B0FBF2F053
:10287000FFF7D2FF50B9102C08D2002221464FF0AA
:10288000FF30FFF7A1FFAC60002032BD012032BD58
:10289000000000200C0000207047704770470000C7
:1028A0007047FEE7FEE7FEE7FEE7704770477047B8
:1028B00000F07AB81748FEF7D8BD1748FFF7D2B82E
:1028C0001648FFF7CFB81648FFF7CCB81548FFF702
:1028D000C9B81548FFF7C6B810B5044613492068B3
:1028E000884208BFFDF7BDFD20681149884208BF36
:1028F000FDF7CBFC2068B0F1804F08BFFDF748FD25
:1029000020680C49884203D1BDE81040FDF7CBBCDC
:1029100010BD00008802002080000020C8000020B8
:102920001001002058010020A001002000100040EC
:10293000000800400004004070477047704770472F
:1029400062F30F2262F31F42401810F0030308D015
:10295000C91A1FD3DB0748BF00F8012D28BF20F894
:10296000022D130030B414461546103928BF20E953
:102970003C00FAD8490728BF20E90C0048BF40F8BE
:10298000042D890028BF20F8022D48BF00F8012D32
:1029900030BC7047C91818BF00F8012DCB0728BFFD
:1029A00000F8012D7047000002494A680878821833
:1029B0004A6070470000002010B50749794418317B
:1029C000064C7C44163404E00A68081D114488470C
:1029D0000146A142F8D110BD080000002800000007
:1029E0003FE6FFFFE40200001000002000000000AE
:1029F00073ECFFFF100000007800000000000020D2
:102A00000000000000F00DF8002801D0FFF7D4FF0F
:102A1000AFF300800020AFF30080FEF73FF800F036
:102A200002F80120704700F001B800000746384660
:102A300000F002F8FBE7000080B5AFF30080024A27
:102A400011001820ABBEFBE7260002007047000013
:102A5000000000000000000001020304060708094E
:102A600001488047014800474D2A0008812A000894
:102A70000100000000000000100000000024F4002D
:102A8000AFF30080AFF30080FFF7BCFFFFF7FEBF9E
:102A9000FFF7FEBFFFF7FEBFFFF7FEBFFFF7FEBF6A
:102AA000FFF7FEBFFFF7FEBFFFF7FEBFFFF7FEBF5A
:102AB000FFF7FEBFFFF7FEBFFFF7FEBFFFF7FEBF4A
:102AC000FFF7FEBFFFF7FEBFFFF7FEBFFFF7FEBF3A
:102AD000FFF7FEBFFFF7FEBFFFF7FEBFFFF7FEBF2A
:102AE000FFF7FEBFFFF7FEBFFFF7FEBFFFF7FEBF1A
:102AF000FFF7FEBFFFF7FEBFFFF7FEBFFFF7FEBF0A
:102B0000FFF7FEBFFFF7FEBFFFF7FEBFFFF7FEBFF9
:102B1000FFF7FEBFFFF7FEBFFFF7FEBFFFF7FEBFE9
:102B2000FFF7FEBFFFF7FEBFFFF7FEBFFFF7FEBFD9
:102B3000FFF7FEBFFFF7FEBFFFF7FEBFFFF7FEBFC9
:102B4000FFF7FEBFFFF7FEBFFFF7FEBFFFF7FEBFB9
:102B5000FFF7FEBFFFF7FEBFFFF7FEBFFFF7FEBFA9
:042B6000FFF7FEBFBE
:0400000508002A8144
:00000001FF
